{
  "_format": "hh-sol-artifact-1",
  "contractName": "MessageHandler",
  "sourceName": "contract/MessageHandler.sol",
  "abi": [
    {
      "anonymous": false,
      "inputs": [
        {
          "indexed": false,
          "internalType": "uint32",
          "name": "sourceDomain",
          "type": "uint32"
        },
        {
          "indexed": false,
          "internalType": "bytes32",
          "name": "sender",
          "type": "bytes32"
        },
        {
          "indexed": false,
          "internalType": "bytes",
          "name": "messageBody",
          "type": "bytes"
        }
      ],
      "name": "MessageReceived",
      "type": "event"
    },
    {
      "inputs": [
        {
          "internalType": "uint32",
          "name": "sourceDomain",
          "type": "uint32"
        },
        {
          "internalType": "bytes32",
          "name": "sender",
          "type": "bytes32"
        },
        {
          "internalType": "bytes",
          "name": "messageBody",
          "type": "bytes"
        }
      ],
      "name": "handleReceiveMessage",
      "outputs": [
        {
          "internalType": "bool",
          "name": "",
          "type": "bool"
        }
      ],
      "stateMutability": "nonpayable",
      "type": "function"
    }
  ],
  "bytecode": "0x6080604052348015600f57600080fd5b506103288061001f6000396000f3fe608060405234801561001057600080fd5b506004361061002b5760003560e01c806396abeb7014610030575b600080fd5b61004a6004803603810190610045919061018c565b610060565b604051610057919061021b565b60405180910390f35b60007f20ec2e9153d350858cf45e0bcfc7d7676dea5ce5dd308668b1ed11244123fd028585858560405161009794939291906102b2565b60405180910390a160019050949350505050565b600080fd5b600080fd5b600063ffffffff82169050919050565b6100ce816100b5565b81146100d957600080fd5b50565b6000813590506100eb816100c5565b92915050565b6000819050919050565b610104816100f1565b811461010f57600080fd5b50565b600081359050610121816100fb565b92915050565b600080fd5b600080fd5b600080fd5b60008083601f84011261014c5761014b610127565b5b8235905067ffffffffffffffff8111156101695761016861012c565b5b60208301915083600182028301111561018557610184610131565b5b9250929050565b600080600080606085870312156101a6576101a56100ab565b5b60006101b4878288016100dc565b94505060206101c587828801610112565b935050604085013567ffffffffffffffff8111156101e6576101e56100b0565b5b6101f287828801610136565b925092505092959194509250565b60008115159050919050565b61021581610200565b82525050565b6000602082019050610230600083018461020c565b92915050565b61023f816100b5565b82525050565b61024e816100f1565b82525050565b600082825260208201905092915050565b82818337600083830152505050565b6000601f19601f8301169050919050565b60006102918385610254565b935061029e838584610265565b6102a783610274565b840190509392505050565b60006060820190506102c76000830187610236565b6102d46020830186610245565b81810360408301526102e7818486610285565b90509594505050505056fea26469706673582212209d0d087f3f6645482324961eff2b14b60330eb255e4499843fdc95da1a27647e64736f6c634300081c0033",
  "linkReferences": {},
  "deployedLinkReferences": {}
}