{
  "contract/MessageHandler.sol": {
    "MessageHandler": {
      "abi": [
        {
          "anonymous": false,
          "inputs": [
            {
              "indexed": false,
              "internalType": "uint32",
              "name": "sourceDomain",
              "type": "uint32"
            },
            {
              "indexed": false,
              "internalType": "bytes32",
              "name": "sender",
              "type": "bytes32"
            },
            {
              "indexed": false,
              "internalType": "bytes",
              "name": "messageBody",
              "type": "bytes"
            }
          ],
          "name": "MessageReceived",
          "type": "event"
        },
        {
          "inputs": [
            {
              "internalType": "uint32",
              "name": "sourceDomain",
              "type": "uint32"
            },
            {
              "internalType": "bytes32",
              "name": "sender",
              "type": "bytes32"
            },
            {
              "internalType": "bytes",
              "name": "messageBody",
              "type": "bytes"
            }
          ],
          "name": "handleReceiveMessage",
          "outputs": [
            {
              "internalType": "bool",
              "name": "",
              "type": "bool"
            }
          ],
          "stateMutability": "nonpayable",
          "type": "function"
        }
      ],
      "evm": {
        "bytecode": {
          "linkReferences": {},
          "object": "6080604052348015600f57600080fd5b506103288061001f6000396000f3fe608060405234801561001057600080fd5b506004361061002b5760003560e01c806396abeb7014610030575b600080fd5b61004a6004803603810190610045919061018c565b610060565b604051610057919061021b565b60405180910390f35b60007f20ec2e9153d350858cf45e0bcfc7d7676dea5ce5dd308668b1ed11244123fd028585858560405161009794939291906102b2565b60405180910390a160019050949350505050565b600080fd5b600080fd5b600063ffffffff82169050919050565b6100ce816100b5565b81146100d957600080fd5b50565b6000813590506100eb816100c5565b92915050565b6000819050919050565b610104816100f1565b811461010f57600080fd5b50565b600081359050610121816100fb565b92915050565b600080fd5b600080fd5b600080fd5b60008083601f84011261014c5761014b610127565b5b8235905067ffffffffffffffff8111156101695761016861012c565b5b60208301915083600182028301111561018557610184610131565b5b9250929050565b600080600080606085870312156101a6576101a56100ab565b5b60006101b4878288016100dc565b94505060206101c587828801610112565b935050604085013567ffffffffffffffff8111156101e6576101e56100b0565b5b6101f287828801610136565b925092505092959194509250565b60008115159050919050565b61021581610200565b82525050565b6000602082019050610230600083018461020c565b92915050565b61023f816100b5565b82525050565b61024e816100f1565b82525050565b600082825260208201905092915050565b82818337600083830152505050565b6000601f19601f8301169050919050565b60006102918385610254565b935061029e838584610265565b6102a783610274565b840190509392505050565b60006060820190506102c76000830187610236565b6102d46020830186610245565b81810360408301526102e7818486610285565b90509594505050505056fea26469706673582212209d0d087f3f6645482324961eff2b14b60330eb255e4499843fdc95da1a27647e64736f6c634300081c0033",
          "opcodes": "PUSH1 0x80 PUSH1 0x40 MSTORE CALLVALUE DUP1 ISZERO PUSH1 0xF JUMPI PUSH1 0x0 DUP1 REVERT JUMPDEST POP PUSH2 0x328 DUP1 PUSH2 0x1F PUSH1 0x0 CODECOPY PUSH1 0x0 RETURN INVALID PUSH1 0x80 PUSH1 0x40 MSTORE CALLVALUE DUP1 ISZERO PUSH2 0x10 JUMPI PUSH1 0x0 DUP1 REVERT JUMPDEST POP PUSH1 0x4 CALLDATASIZE LT PUSH2 0x2B JUMPI PUSH1 0x0 CALLDATALOAD PUSH1 0xE0 SHR DUP1 PUSH4 0x96ABEB70 EQ PUSH2 0x30 JUMPI JUMPDEST PUSH1 0x0 DUP1 REVERT JUMPDEST PUSH2 0x4A PUSH1 0x4 DUP1 CALLDATASIZE SUB DUP2 ADD SWAP1 PUSH2 0x45 SWAP2 SWAP1 PUSH2 0x18C JUMP JUMPDEST PUSH2 0x60 JUMP JUMPDEST PUSH1 0x40 MLOAD PUSH2 0x57 SWAP2 SWAP1 PUSH2 0x21B JUMP JUMPDEST PUSH1 0x40 MLOAD DUP1 SWAP2 SUB SWAP1 RETURN JUMPDEST PUSH1 0x0 PUSH32 0x20EC2E9153D350858CF45E0BCFC7D7676DEA5CE5DD308668B1ED11244123FD02 DUP6 DUP6 DUP6 DUP6 PUSH1 0x40 MLOAD PUSH2 0x97 SWAP5 SWAP4 SWAP3 SWAP2 SWAP1 PUSH2 0x2B2 JUMP JUMPDEST PUSH1 0x40 MLOAD DUP1 SWAP2 SUB SWAP1 LOG1 PUSH1 0x1 SWAP1 POP SWAP5 SWAP4 POP POP POP POP JUMP JUMPDEST PUSH1 0x0 DUP1 REVERT JUMPDEST PUSH1 0x0 DUP1 REVERT JUMPDEST PUSH1 0x0 PUSH4 0xFFFFFFFF DUP3 AND SWAP1 POP SWAP2 SWAP1 POP JUMP JUMPDEST PUSH2 0xCE DUP2 PUSH2 0xB5 JUMP JUMPDEST DUP2 EQ PUSH2 0xD9 JUMPI PUSH1 0x0 DUP1 REVERT JUMPDEST POP JUMP JUMPDEST PUSH1 0x0 DUP2 CALLDATALOAD SWAP1 POP PUSH2 0xEB DUP2 PUSH2 0xC5 JUMP JUMPDEST SWAP3 SWAP2 POP POP JUMP JUMPDEST PUSH1 0x0 DUP2 SWAP1 POP SWAP2 SWAP1 POP JUMP JUMPDEST PUSH2 0x104 DUP2 PUSH2 0xF1 JUMP JUMPDEST DUP2 EQ PUSH2 0x10F JUMPI PUSH1 0x0 DUP1 REVERT JUMPDEST POP JUMP JUMPDEST PUSH1 0x0 DUP2 CALLDATALOAD SWAP1 POP PUSH2 0x121 DUP2 PUSH2 0xFB JUMP JUMPDEST SWAP3 SWAP2 POP POP JUMP JUMPDEST PUSH1 0x0 DUP1 REVERT JUMPDEST PUSH1 0x0 DUP1 REVERT JUMPDEST PUSH1 0x0 DUP1 REVERT JUMPDEST PUSH1 0x0 DUP1 DUP4 PUSH1 0x1F DUP5 ADD SLT PUSH2 0x14C JUMPI PUSH2 0x14B PUSH2 0x127 JUMP JUMPDEST JUMPDEST DUP3 CALLDATALOAD SWAP1 POP PUSH8 0xFFFFFFFFFFFFFFFF DUP2 GT ISZERO PUSH2 0x169 JUMPI PUSH2 0x168 PUSH2 0x12C JUMP JUMPDEST JUMPDEST PUSH1 0x20 DUP4 ADD SWAP2 POP DUP4 PUSH1 0x1 DUP3 MUL DUP4 ADD GT ISZERO PUSH2 0x185 JUMPI PUSH2 0x184 PUSH2 0x131 JUMP JUMPDEST JUMPDEST SWAP3 POP SWAP3 SWAP1 POP JUMP JUMPDEST PUSH1 0x0 DUP1 PUSH1 0x0 DUP1 PUSH1 0x60 DUP6 DUP8 SUB SLT ISZERO PUSH2 0x1A6 JUMPI PUSH2 0x1A5 PUSH2 0xAB JUMP JUMPDEST JUMPDEST PUSH1 0x0 PUSH2 0x1B4 DUP8 DUP3 DUP9 ADD PUSH2 0xDC JUMP JUMPDEST SWAP5 POP POP PUSH1 0x20 PUSH2 0x1C5 DUP8 DUP3 DUP9 ADD PUSH2 0x112 JUMP JUMPDEST SWAP4 POP POP PUSH1 0x40 DUP6 ADD CALLDATALOAD PUSH8 0xFFFFFFFFFFFFFFFF DUP2 GT ISZERO PUSH2 0x1E6 JUMPI PUSH2 0x1E5 PUSH2 0xB0 JUMP JUMPDEST JUMPDEST PUSH2 0x1F2 DUP8 DUP3 DUP9 ADD PUSH2 0x136 JUMP JUMPDEST SWAP3 POP SWAP3 POP POP SWAP3 SWAP6 SWAP2 SWAP5 POP SWAP3 POP JUMP JUMPDEST PUSH1 0x0 DUP2 ISZERO ISZERO SWAP1 POP SWAP2 SWAP1 POP JUMP JUMPDEST PUSH2 0x215 DUP2 PUSH2 0x200 JUMP JUMPDEST DUP3 MSTORE POP POP JUMP JUMPDEST PUSH1 0x0 PUSH1 0x20 DUP3 ADD SWAP1 POP PUSH2 0x230 PUSH1 0x0 DUP4 ADD DUP5 PUSH2 0x20C JUMP JUMPDEST SWAP3 SWAP2 POP POP JUMP JUMPDEST PUSH2 0x23F DUP2 PUSH2 0xB5 JUMP JUMPDEST DUP3 MSTORE POP POP JUMP JUMPDEST PUSH2 0x24E DUP2 PUSH2 0xF1 JUMP JUMPDEST DUP3 MSTORE POP POP JUMP JUMPDEST PUSH1 0x0 DUP3 DUP3 MSTORE PUSH1 0x20 DUP3 ADD SWAP1 POP SWAP3 SWAP2 POP POP JUMP JUMPDEST DUP3 DUP2 DUP4 CALLDATACOPY PUSH1 0x0 DUP4 DUP4 ADD MSTORE POP POP POP JUMP JUMPDEST PUSH1 0x0 PUSH1 0x1F NOT PUSH1 0x1F DUP4 ADD AND SWAP1 POP SWAP2 SWAP1 POP JUMP JUMPDEST PUSH1 0x0 PUSH2 0x291 DUP4 DUP6 PUSH2 0x254 JUMP JUMPDEST SWAP4 POP PUSH2 0x29E DUP4 DUP6 DUP5 PUSH2 0x265 JUMP JUMPDEST PUSH2 0x2A7 DUP4 PUSH2 0x274 JUMP JUMPDEST DUP5 ADD SWAP1 POP SWAP4 SWAP3 POP POP POP JUMP JUMPDEST PUSH1 0x0 PUSH1 0x60 DUP3 ADD SWAP1 POP PUSH2 0x2C7 PUSH1 0x0 DUP4 ADD DUP8 PUSH2 0x236 JUMP JUMPDEST PUSH2 0x2D4 PUSH1 0x20 DUP4 ADD DUP7 PUSH2 0x245 JUMP JUMPDEST DUP2 DUP2 SUB PUSH1 0x40 DUP4 ADD MSTORE PUSH2 0x2E7 DUP2 DUP5 DUP7 PUSH2 0x285 JUMP JUMPDEST SWAP1 POP SWAP6 SWAP5 POP POP POP POP POP JUMP INVALID LOG2 PUSH5 0x6970667358 0x22 SLT KECCAK256 SWAP14 0xD ADDMOD PUSH32 0x3F6645482324961EFF2B14B60330EB255E4499843FDC95DA1A27647E64736F6C PUSH4 0x4300081C STOP CALLER "
        },
        "methodIdentifiers": {
          "handleReceiveMessage(uint32,bytes32,bytes)": "96abeb70"
        }
      }
    }
  }
}